{
  "contractName": "CrowdfundingCampaign",
  "abi": [
    {
      "constant": true,
      "inputs": [],
      "name": "creator",
      "outputs": [
        {
          "name": "",
          "type": "address"
        }
      ],
      "payable": false,
      "stateMutability": "view",
      "type": "function"
    },
    {
      "constant": true,
      "inputs": [],
      "name": "targetGoal",
      "outputs": [
        {
          "name": "",
          "type": "uint256"
        }
      ],
      "payable": false,
      "stateMutability": "view",
      "type": "function"
    },
    {
      "constant": true,
      "inputs": [],
      "name": "title",
      "outputs": [
        {
          "name": "",
          "type": "string"
        }
      ],
      "payable": false,
      "stateMutability": "view",
      "type": "function"
    },
    {
      "constant": true,
      "inputs": [
        {
          "name": "",
          "type": "uint256"
        }
      ],
      "name": "withdrawals",
      "outputs": [
        {
          "name": "description",
          "type": "string"
        },
        {
          "name": "value",
          "type": "uint256"
        },
        {
          "name": "recipient",
          "type": "address"
        },
        {
          "name": "complete",
          "type": "bool"
        },
        {
          "name": "approvalCount",
          "type": "uint256"
        }
      ],
      "payable": false,
      "stateMutability": "view",
      "type": "function"
    },
    {
      "constant": true,
      "inputs": [],
      "name": "description",
      "outputs": [
        {
          "name": "",
          "type": "string"
        }
      ],
      "payable": false,
      "stateMutability": "view",
      "type": "function"
    },
    {
      "constant": true,
      "inputs": [],
      "name": "contributorsCount",
      "outputs": [
        {
          "name": "",
          "type": "uint256"
        }
      ],
      "payable": false,
      "stateMutability": "view",
      "type": "function"
    },
    {
      "constant": true,
      "inputs": [],
      "name": "minimumContribution",
      "outputs": [
        {
          "name": "",
          "type": "uint256"
        }
      ],
      "payable": false,
      "stateMutability": "view",
      "type": "function"
    },
    {
      "inputs": [
        {
          "name": "_title",
          "type": "string"
        },
        {
          "name": "_description",
          "type": "string"
        },
        {
          "name": "_minimum",
          "type": "uint256"
        },
        {
          "name": "_goal",
          "type": "uint256"
        }
      ],
      "payable": false,
      "stateMutability": "nonpayable",
      "type": "constructor"
    },
    {
      "constant": false,
      "inputs": [
        {
          "indexed": false,
          "name": "contributor",
          "type": "address"
        },
        {
          "indexed": false,
          "name": "value",
          "type": "uint256"
        }
      ],
      "name": "LogContribution",
      "outputs": [],
      "payable": true,
      "stateMutability": "payable",
      "type": "event",
      "anonymous": false
    },
    {
      "constant": false,
      "inputs": [
        {
          "name": "creator",
          "type": "address",
          "indexed": false
        },
        {
          "name": "recipient",
          "type": "address",
          "indexed": false
        },
        {
          "name": "value",
          "type": "uint256",
          "indexed": false
        }
      ],
      "name": "LogWithdrawalCreation",
      "outputs": [],
      "payable": false,
      "stateMutability": "nonpayable",
      "type": "event",
      "anonymous": false
    },
    {
      "constant": true,
      "inputs": [
        {
          "name": "recipient",
          "type": "address",
          "indexed": false
        },
        {
          "indexed": false,
          "name": "value",
          "type": "uint256"
        }
      ],
      "name": "LogWithdrawalCompletion",
      "outputs": [
        {
          "name": "withdrawalDescription",
          "type": "string"
        },
        {
          "name": "value",
          "type": "uint256"
        },
        {
          "name": "recipient",
          "type": "address"
        },
        {
          "name": "complete",
          "type": "bool"
        },
        {
          "name": "approvalCount",
          "type": "uint256"
        }
      ],
      "payable": false,
      "stateMutability": "view",
      "type": "event",
      "anonymous": false
    },
    {
      "constant": true,
      "inputs": [
        {
          "name": "index",
          "type": "uint256"
        }
      ],
      "name": "readCampaign",
      "outputs": [
        {
          "name": "_title",
          "type": "string"
        },
        {
          "name": "_description",
          "type": "string"
        },
        {
          "name": "_minimum",
          "type": "uint256"
        },
        {
          "name": "_goal",
          "type": "uint256"
        }
      ],
      "payable": false,
      "stateMutability": "view",
      "type": "function"
    },
    {
      "constant": false,
      "inputs": [
        {
          "name": "index",
          "type": "uint256"
        }
      ],
      "name": "contribute",
      "outputs": [],
      "payable": true,
      "stateMutability": "payable",
      "type": "function"
    },
    {
      "constant": false,
      "inputs": [
        {
          "name": "withdrawalDescription",
          "type": "string"
        },
        {
          "name": "value",
          "type": "uint256"
        },
        {
          "name": "recipient",
          "type": "address"
        }
      ],
      "name": "createWithdrawlRequest",
      "outputs": [],
      "payable": false,
      "stateMutability": "nonpayable",
      "type": "function"
    },
    {
      "constant": true,
      "inputs": [
        {
          "name": "index",
          "type": "uint256"
        }
      ],
      "name": "readWithdrawlRequest",
      "outputs": [
        {
          "name": "withdrawalDescription",
          "type": "string"
        },
        {
          "name": "value",
          "type": "uint256"
        },
        {
          "name": "recipient",
          "type": "address"
        },
        {
          "name": "complete",
          "type": "bool"
        },
        {
          "name": "approvalCount",
          "type": "uint256"
        }
      ],
      "payable": false,
      "stateMutability": "view",
      "type": "function"
    },
    {
      "constant": false,
      "inputs": [
        {
          "name": "index",
          "type": "uint256"
        }
      ],
      "name": "approveWithdrawal",
      "outputs": [],
      "payable": false,
      "stateMutability": "nonpayable",
      "type": "function"
    },
    {
      "constant": false,
      "inputs": [
        {
          "name": "index",
          "type": "uint256"
        }
      ],
      "name": "finalizeWithdrawal",
      "outputs": [],
      "payable": false,
      "stateMutability": "nonpayable",
      "type": "function"
    }
  ],
  "bytecode": "0x60806040523480156200001157600080fd5b5060405162001a1938038062001a19833981018060405260808110156200003757600080fd5b8101908080516401000000008111156200005057600080fd5b828101905060208101848111156200006757600080fd5b81518560018202830111640100000000821117156200008557600080fd5b50509291906020018051640100000000811115620000a257600080fd5b82810190506020810184811115620000b957600080fd5b8151856001820283011164010000000082111715620000d757600080fd5b50509291906020018051906020019092919080519060200190929190505050336000806101000a81548173ffffffffffffffffffffffffffffffffffffffff021916908373ffffffffffffffffffffffffffffffffffffffff16021790555083600290805190602001906200014e92919062000180565b5082600390805190602001906200016792919062000180565b508160048190555080600581905550505050506200022f565b828054600181600116156101000203166002900490600052602060002090601f016020900481019282601f10620001c357805160ff1916838001178555620001f4565b82800160010185558215620001f4579182015b82811115620001f3578251825591602001919060010190620001d6565b5b50905062000203919062000207565b5090565b6200022c91905b80821115620002285760008160009055506001016200020e565b5090565b90565b6117da806200023f6000396000f3fe6080604052600436106100c5576000357c0100000000000000000000000000000000000000000000000000000000900463ffffffff16806302d05d3f146100ca57806342320eac146101215780634a79d50c1461014c57806357a516fb146101dc5780635cc07076146102dc5780635d9cf243146103dc5780635e15c749146104ce5780637284e416146105095780637569b3d7146105995780638c906720146105c4578063937e09b1146106ce5780639eceddea146106f9578063d7bb99ba14610734575b600080fd5b3480156100d657600080fd5b506100df61073e565b604051808273ffffffffffffffffffffffffffffffffffffffff1673ffffffffffffffffffffffffffffffffffffffff16815260200191505060405180910390f35b34801561012d57600080fd5b50610136610763565b6040518082815260200191505060405180910390f35b34801561015857600080fd5b50610161610769565b6040518080602001828103825283818151815260200191508051906020019080838360005b838110156101a1578082015181840152602081019050610186565b50505050905090810190601f1680156101ce5780820380516001836020036101000a031916815260200191505b509250505060405180910390f35b3480156101e857600080fd5b50610215600480360360208110156101ff57600080fd5b8101908080359060200190929190505050610807565b60405180806020018681526020018573ffffffffffffffffffffffffffffffffffffffff1673ffffffffffffffffffffffffffffffffffffffff16815260200184151515158152602001838152602001828103825287818151815260200191508051906020019080838360005b8381101561029d578082015181840152602081019050610282565b50505050905090810190601f1680156102ca5780820380516001836020036101000a031916815260200191505b50965050505050505060405180910390f35b3480156102e857600080fd5b50610315600480360360208110156102ff57600080fd5b810190808035906020019092919050505061098c565b60405180806020018681526020018573ffffffffffffffffffffffffffffffffffffffff1673ffffffffffffffffffffffffffffffffffffffff16815260200184151515158152602001838152602001828103825287818151815260200191508051906020019080838360005b8381101561039d578082015181840152602081019050610382565b50505050905090810190601f1680156103ca5780820380516001836020036101000a031916815260200191505b50965050505050505060405180910390f35b3480156103e857600080fd5b506104cc600480360360608110156103ff57600080fd5b810190808035906020019064010000000081111561041c57600080fd5b82018360208201111561042e57600080fd5b8035906020019184600183028401116401000000008311171561045057600080fd5b91908080601f016020809104026020016040519081016040528093929190818152602001838380828437600081840152601f19601f82011690508083019250505050505050919291929080359060200190929190803573ffffffffffffffffffffffffffffffffffffffff169060200190929190505050610a96565b005b3480156104da57600080fd5b50610507600480360360208110156104f157600080fd5b8101908080359060200190929190505050610d14565b005b34801561051557600080fd5b5061051e611078565b6040518080602001828103825283818151815260200191508051906020019080838360005b8381101561055e578082015181840152602081019050610543565b50505050905090810190601f16801561058b5780820380516001836020036101000a031916815260200191505b509250505060405180910390f35b3480156105a557600080fd5b506105ae611116565b6040518082815260200191505060405180910390f35b3480156105d057600080fd5b506105d961111c565b604051808060200180602001858152602001848152602001838103835287818151815260200191508051906020019080838360005b8381101561062957808201518184015260208101905061060e565b50505050905090810190601f1680156106565780820380516001836020036101000a031916815260200191505b50838103825286818151815260200191508051906020019080838360005b8381101561068f578082015181840152602081019050610674565b50505050905090810190601f1680156106bc5780820380516001836020036101000a031916815260200191505b50965050505050505060405180910390f35b3480156106da57600080fd5b506106e361126c565b6040518082815260200191505060405180910390f35b34801561070557600080fd5b506107326004803603602081101561071c57600080fd5b8101908080359060200190929190505050611272565b005b61073c61148a565b005b6000809054906101000a900473ffffffffffffffffffffffffffffffffffffffff1681565b60055481565b60028054600181600116156101000203166002900480601f0160208091040260200160405190810160405280929190818152602001828054600181600116156101000203166002900480156107ff5780601f106107d4576101008083540402835291602001916107ff565b820191906000526020600020905b8154815290600101906020018083116107e257829003601f168201915b505050505081565b606060008060008060078681548110151561081e57fe5b90600052602060002090600502016000018054600181600116156101000203166002900480601f0160208091040260200160405190810160405280929190818152602001828054600181600116156101000203166002900480156108c35780601f10610898576101008083540402835291602001916108c3565b820191906000526020600020905b8154815290600101906020018083116108a657829003601f168201915b505050505094506007868154811015156108d957fe5b90600052602060002090600502016001015493506007868154811015156108fc57fe5b906000526020600020906005020160020160009054906101000a900473ffffffffffffffffffffffffffffffffffffffff16925060078681548110151561093f57fe5b906000526020600020906005020160020160149054906101000a900460ff16915060078681548110151561096f57fe5b906000526020600020906005020160030154905091939590929450565b60078181548110151561099b57fe5b9060005260206000209060050201600091509050806000018054600181600116156101000203166002900480601f016020809104026020016040519081016040528092919081815260200182805460018160011615610100020316600290048015610a475780601f10610a1c57610100808354040283529160200191610a47565b820191906000526020600020905b815481529060010190602001808311610a2a57829003601f168201915b5050505050908060010154908060020160009054906101000a900473ffffffffffffffffffffffffffffffffffffffff16908060020160149054906101000a900460ff16908060030154905085565b6000809054906101000a900473ffffffffffffffffffffffffffffffffffffffff1673ffffffffffffffffffffffffffffffffffffffff163373ffffffffffffffffffffffffffffffffffffffff16141515610b5a576040517f08c379a00000000000000000000000000000000000000000000000000000000081526004018080602001828103825260158152602001807f596f75206d75737420626520746865206f776e6572000000000000000000000081525060200191505060405180910390fd5b610b626116c1565b60a0604051908101604052808581526020018481526020018373ffffffffffffffffffffffffffffffffffffffff16815260200160001515815260200160008152509050600781908060018154018082558091505090600182039060005260206000209060050201600090919290919091506000820151816000019080519060200190610bf0929190611709565b506020820151816001015560408201518160020160006101000a81548173ffffffffffffffffffffffffffffffffffffffff021916908373ffffffffffffffffffffffffffffffffffffffff16021790555060608201518160020160146101000a81548160ff021916908315150217905550608082015181600301555050507f94413cca372d919550b52bc2aa50386c28481054abf0c2e2393742306ebc70f5338385604051808473ffffffffffffffffffffffffffffffffffffffff1673ffffffffffffffffffffffffffffffffffffffff1681526020018373ffffffffffffffffffffffffffffffffffffffff1673ffffffffffffffffffffffffffffffffffffffff168152602001828152602001935050505060405180910390a150505050565b6000809054906101000a900473ffffffffffffffffffffffffffffffffffffffff1673ffffffffffffffffffffffffffffffffffffffff163373ffffffffffffffffffffffffffffffffffffffff16141515610dd8576040517f08c379a00000000000000000000000000000000000000000000000000000000081526004018080602001828103825260158152602001807f596f75206d75737420626520746865206f776e6572000000000000000000000081525060200191505060405180910390fd5b6000600782815481101515610de957fe5b906000526020600020906005020190506002600654811515610e0757fe5b048160030154111515610ea8576040517f08c379a00000000000000000000000000000000000000000000000000000000081526004018080602001828103825260218152602001807f417070726f76616c206d7573742062652067726561746572207468616e20353081526020017f250000000000000000000000000000000000000000000000000000000000000081525060400191505060405180910390fd5b8060020160149054906101000a900460ff16151515610f55576040517f08c379a00000000000000000000000000000000000000000000000000000000081526004018080602001828103825260268152602001807f57697468647261776c206d757374206e6f7420616c726561647920626520636f81526020017f6d706c657465000000000000000000000000000000000000000000000000000081525060400191505060405180910390fd5b8060020160009054906101000a900473ffffffffffffffffffffffffffffffffffffffff1673ffffffffffffffffffffffffffffffffffffffff166108fc82600101549081150290604051600060405180830381858888f19350505050158015610fc3573d6000803e3d6000fd5b5060018160020160146101000a81548160ff0219169083151502179055507fd51f0a23ce80980fe2651d568650978fa322ae0db39b80bbafd804c8f84d6ea18160020160009054906101000a900473ffffffffffffffffffffffffffffffffffffffff168260010154604051808373ffffffffffffffffffffffffffffffffffffffff1673ffffffffffffffffffffffffffffffffffffffff1681526020018281526020019250505060405180910390a15050565b60038054600181600116156101000203166002900480601f01602080910402602001604051908101604052809291908181526020018280546001816001161561010002031660029004801561110e5780601f106110e35761010080835404028352916020019161110e565b820191906000526020600020905b8154815290600101906020018083116110f157829003601f168201915b505050505081565b60065481565b60608060008060028054600181600116156101000203166002900480601f0160208091040260200160405190810160405280929190818152602001828054600181600116156101000203166002900480156111b85780601f1061118d576101008083540402835291602001916111b8565b820191906000526020600020905b81548152906001019060200180831161119b57829003601f168201915b5050505050935060038054600181600116156101000203166002900480601f0160208091040260200160405190810160405280929190818152602001828054600181600116156101000203166002900480156112555780601f1061122a57610100808354040283529160200191611255565b820191906000526020600020905b81548152906001019060200180831161123857829003601f168201915b505050505092506004549150600554905090919293565b60045481565b600160003373ffffffffffffffffffffffffffffffffffffffff1673ffffffffffffffffffffffffffffffffffffffff16815260200190815260200160002060009054906101000a900460ff161515611333576040517f08c379a00000000000000000000000000000000000000000000000000000000081526004018080602001828103825260198152602001807f596f75206d757374206265206120636f6e7472696275746f720000000000000081525060200191505060405180910390fd5b600060078281548110151561134457fe5b906000526020600020906005020190508060040160003373ffffffffffffffffffffffffffffffffffffffff1673ffffffffffffffffffffffffffffffffffffffff16815260200190815260200160002060009054906101000a900460ff16151515611418576040517f08c379a000000000000000000000000000000000000000000000000000000000815260040180806020018281038252601d8152602001807f436f6e7472696275746f722068617320616c726561647920766f74656400000081525060200191505060405180910390fd5b60018160040160003373ffffffffffffffffffffffffffffffffffffffff1673ffffffffffffffffffffffffffffffffffffffff16815260200190815260200160002060006101000a81548160ff02191690831515021790555080600301600081548092919060010191905055505050565b600160003373ffffffffffffffffffffffffffffffffffffffff1673ffffffffffffffffffffffffffffffffffffffff16815260200190815260200160002060009054906101000a900460ff16151561154b576040517f08c379a00000000000000000000000000000000000000000000000000000000081526004018080602001828103825260198152602001807f596f75206d757374206265206120636f6e7472696275746f720000000000000081525060200191505060405180910390fd5b60045434101515156115eb576040517f08c379a00000000000000000000000000000000000000000000000000000000081526004018080602001828103825260378152602001807f54686520636f6e747269627574696f6e206d7573742062652061626f7665207481526020017f6865206d696e696d756d20436f6e747269627574696f6e00000000000000000081525060400191505060405180910390fd5b60018060003373ffffffffffffffffffffffffffffffffffffffff1673ffffffffffffffffffffffffffffffffffffffff16815260200190815260200160002060006101000a81548160ff0219169083151502179055506006600081548092919060010191905055507f370510fa7e8c74204b8d2fd52b7a0837e535ea0c1491fd4e13730ce825e405243334604051808373ffffffffffffffffffffffffffffffffffffffff1673ffffffffffffffffffffffffffffffffffffffff1681526020018281526020019250505060405180910390a1565b60a0604051908101604052806060815260200160008152602001600073ffffffffffffffffffffffffffffffffffffffff168152602001600015158152602001600081525090565b828054600181600116156101000203166002900490600052602060002090601f016020900481019282601f1061174a57805160ff1916838001178555611778565b82800160010185558215611778579182015b8281111561177757825182559160200191906001019061175c565b5b5090506117859190611789565b5090565b6117ab91905b808211156117a757600081600090555060010161178f565b5090565b9056fea165627a7a7230582028e6a3c7984b09d3a7372a9da16a5ad444e2c0da60e418327840105bb5895eac0029",
  "source": "pragma solidity ^0.5.0;\n\n//Importing OpenZeppelin's SafeMath Implementation\nimport \"./SafeMath.sol\";\n\ncontract CrowdfundingCampaign {\n    using SafeMath for uint256;\n\n    address payable public creator;\n    mapping(address => bool) contributors; //bool to check if contributor supported a campaign\n    string public title;\n    string public description;\n    uint256 public minimumContribution; //minimum constribution a contributor can send set by the creator\n    uint256 public targetGoal; //The target goal of the campaign set by the creator\n    uint256 public contributorsCount; //count of contributors for a single campaign\n\n    struct Withdrawal {\n        string description; //reason for withdraw of campaign\n        uint value; //value creator wants to withdrawl\n        address payable recipient; //creator can send to either themself or support someone else\n        bool complete;\n        uint approvalCount; //contributors vote on if the withdrawl should happen\n        mapping(address => bool) approvals;\n    }\n\n    Withdrawal[] public withdrawals;\n\n    event LogContribution(address contributor, uint256 value);\n    event LogWithdrawalCreation(address creator, address recipient, uint256 value);\n    event LogWithdrawalCompletion(address recipient, uint256 value);\n\n\n    constructor(string memory _title, string memory _description, uint256 _minimum, uint256 _goal) public {\n        creator = msg.sender;\n        title = _title;\n        description = _description;\n        minimumContribution = _minimum;\n        targetGoal = _goal;\n    }\n\n    //modifier to check if the caller is the owner of the campaign\n    modifier isCreator {\n        require(msg.sender == creator, \"You must be the owner\");\n        _;\n    }\n\n    //modifier to check if the caller is a contributor of the campaign\n    modifier isContributor {\n        require(contributors[msg.sender], \"You must be a contributor\");\n        _;\n    }\n    \n    //Function to read a single crowdfunding campaign\n    function readCampaign() public view returns (string memory _title, string memory _description, uint256 _minimum, uint256 _goal)\n    {\n        _title = title;\n        _description = description;\n        _minimum = minimumContribution;\n        _goal = targetGoal;\n    }\n\n    /** @dev Function to fund the campaign as a contributor\n       */\n    function contribute() public payable isContributor {\n        require(msg.value >= minimumContribution, \"The contribution must be above the minimum Contribution\");\n        contributors[msg.sender] = true;\n        contributorsCount++;\n        emit LogContribution(msg.sender, msg.value);\n    }\n\n    /** @dev Creator creates a withdrawl request to withdrawl funds from raised crowdfund\n     */\n    function createWithdrawlRequest(string memory withdrawalDescription, uint value, address payable recipient) public isCreator {\n        Withdrawal memory newWithdrawal = Withdrawal ({\n            description: withdrawalDescription,\n            value: value,\n            recipient: recipient,\n            complete: false,\n            approvalCount: 0\n        });\n        withdrawals.push(newWithdrawal);\n        emit LogWithdrawalCreation(msg.sender, recipient, value);\n    }\n\n    /** @dev Returns the details for a withdrawl request\n     */\n    function readWithdrawlRequest(uint index)public view returns\n    (string memory withdrawalDescription, uint256 value,\n    address recipient, bool complete, uint256 approvalCount) {\n        withdrawalDescription = withdrawals[index].description;\n        value = withdrawals[index].value;\n        recipient = withdrawals[index].recipient;\n        complete = withdrawals[index].complete;\n        approvalCount = withdrawals[index].approvalCount;\n    }\n\n    /** @dev Contributor(s) vote on withdrawl request created by the creator of the crowdfund\n     */\n    function approveWithdrawal(uint index) public isContributor {\n        Withdrawal storage withdrawal = withdrawals[index];\n\n        require(!withdrawal.approvals[msg.sender], \"Contributor has already voted\");\n\n        withdrawal.approvals[msg.sender] = true;\n\n        withdrawal.approvalCount++;\n    }\n\n    /** @dev Function for Creator to withdrawl funds if contributor vote is grater than 50%\n     */\n    function finalizeWithdrawal(uint index) public isCreator {\n        Withdrawal storage withdrawal = withdrawals[index];\n\n        require(withdrawal.approvalCount > (contributorsCount / 2),\"Approval must be greater than 50%\");\n        require(!withdrawal.complete, \"Withdrawl must not already be complete\");\n\n        withdrawal.recipient.transfer(withdrawal.value);\n        withdrawal.complete = true;\n\n        emit LogWithdrawalCompletion(withdrawal.recipient, withdrawal.value);\n    }\n\n\n}",
  "sourcePath": "/Users/alexcoury/Projects/ConsenSys-Academy-Final/contracts/CrowdFundingCampaign.sol",
  "compiler": {
    "name": "solc",
    "version": "0.5.0+commit.1d4f565a.Emscripten.clang"
  },
  "schemaVersion": "3.0.9",
  "updatedAt": "2019-07-22T18:27:54.398Z",
  "devdoc": {
    "methods": {
      "approveWithdrawal(uint256)": {
        "details": "Contributor(s) vote on withdrawl request created by the creator of the crowdfund"
      },
      "contribute()": {
        "details": "Function to fund the campaign as a contributor"
      },
      "createWithdrawlRequest(string,uint256,address)": {
        "details": "Creator creates a withdrawl request to withdrawl funds from raised crowdfund"
      },
      "finalizeWithdrawal(uint256)": {
        "details": "Function for Creator to withdrawl funds if contributor vote is grater than 50%"
      },
      "readWithdrawlRequest(uint256)": {
        "details": "Returns the details for a withdrawl request"
      }
    }
  },
  "userdoc": {
    "methods": {}
  }
}